:100000000C9435000C945D000C945D000C945D0024
:100010000C945D000C945D000C945D000C945D00EC
:100020000C945D000C945D000C945D000C948400B5
:100030000C945D000C945D000C945D000C945D00CC
:100040000C945F000C945D000C945D000C945D00BA
:100050000C945D000C945D000C945D000C945D00AC
:100060000C945D000C945D00C30311241FBECFEF00
:10007000D8E0DEBFCDBF11E0A0E0B1E0E4E3F0E105
:1000800002C005900D92A834B107D9F721E0A8E489
:10009000B1E001C01D92A435B207E1F710E0C5E35D
:1000A000D0E004C02197FE010E940C04C433D107A4
:1000B000C9F70E9441030C9418080C9400001F9289
:1000C0000F920FB60F9211248F939F93AF93BF930C
:1000D00080914C0190914D01A0914E01B0914F0142
:1000E0000196A11DB11D80934C0190934D01A093E9
:1000F0004E01B0934F01BF91AF919F918F910F909F
:100100000FBE0F901F9018951F920F920FB60F926F
:1001100011248F939F93AF93BF9380914801909147
:100120004901A0914A01B0914B010196A11DB11D59
:100130008093480190934901A0934A01B0934B01E9
:10014000BF91AF919F918F910F900FBE0F901F9015
:100150001895F894609148017091490180914A0185
:1001600090914B01789408950F931F932FB7F894B3
:1001700080914C0190914D01A0914E01B0914F01A1
:1001800046B5A89B05C04F3F19F00196A11DB11DB2
:100190002FBFBA2FA92F982F882750E070E060E07A
:1001A00032E0440F551F661F771F3A95D1F78C0137
:1001B0009D01040F151F261F371FC901B8011F918C
:1001C0000F9108958F929F92AF92BF92CF92DF923C
:1001D000EF92FF926B017C010E94B4004B015C0125
:1001E000C114D104E104F10411F10E94B4006819B2
:1001F00079098A099B09683E73408105910580F35E
:100200008FE99FE00197F1F700C0000091E0C91A63
:10021000D108E108F10828EE820E23E0921EA11C0D
:10022000B11CC114D104E104F104F9F6D9CFFF9057
:10023000EF90DF90CF90BF90AF909F908F900895F8
:10024000009731F025E02A95F1F700000197F8CFEB
:1002500008956330A9F5883068F49AB121E030E060
:1002600001C0220F8A95EAF7892F822B8AB981E093
:1002700090E0089598EF980F963078F424B1885064
:10028000990B41E050E0BA0102C0660F771F8A95D2
:10029000E2F7CB01822B84B9EACF92EF980F963028
:1002A00030F727B18E50990B41E050E0BA0102C0FF
:1002B000660F771F8A95E2F7CB01822B87B9D7CFDC
:1002C000883068F44AB121E030E0B90102C0660F1D
:1002D000771F8A95E2F7CB0180958423C7CF98EFEB
:1002E000980F963078F444B18850990B21E030E0B3
:1002F000B90102C0660F771F8A95E2F7CB0180959E
:100300008423C9CF92EF980F963008F0B0CF47B151
:100310008E50990B21E030E0B90102C0660F771FC3
:100320008A95E2F7CB0180958423C8CF613099F597
:10033000883058F49BB121E030E001C0220F8A954B
:10034000EAF7892F822B8BB9089598EF980F963092
:1003500078F425B18850990B41E050E0BA0102C011
:10036000660F771F8A95E2F7CB01822B85B9089536
:1003700092EF980F963070F428B18E50990B41E0AF
:1003800050E0BA0102C0660F771F8A95E2F7CB01F1
:10039000822B88B908956111FDCF883068F44BB184
:1003A00021E030E0B90102C0660F771F8A95E2F7BD
:1003B000CB0180958423C7CF98EF980F963078F4BF
:1003C00045B18850990B21E030E0B90102C0660FB9
:1003D000771F8A95E2F7CB0180958423C7CF92EFF0
:1003E000980F9630B8F648B18E50990B21E030E066
:1003F000B90102C0660F771F8A95E2F7CB0180959D
:100400008423C7CF833079F08B30E9F49091B0002A
:1004100093689093B0009091B10092609093B10076
:100420006093B3000CC09091B00093629093B000C1
:100430009091B10092609093B1006093B40061110B
:100440003BC00C9496019BEF980F923088F494B5C2
:10045000853039F4936294BD95B5926095BD68BDC1
:10046000EECF936894BD95B5926095BD67BDE7CF1B
:1004700097EF980F923018F7262F30E09091800078
:10048000893069F4916890938000909181009A601E
:10049000909381003093890020938800D0CF91629F
:1004A00090938000909181009A60909381003093A6
:1004B0008B0020938A00C3CF0895CF93DF93D62F6C
:1004C000C42F613A39F4642F0E9402028C2FDF910D
:1004D000CF910895C0E06230C8F70E949601CD2FF9
:1004E000F5CF282F6D3009F5883058F499B1892F50
:1004F00090E002C0959587952A95E2F7817099273B
:10050000089588EF820F863030F493B1892F90E000
:100510002850330BEECF82EF820F8630E0F496B195
:10052000892F90E02E50330BE4CF603AA1F42E5087
:10053000263088F4206420937C0080917A008064C7
:1005400080937A0080917A0086FDFCCF80917800BC
:1005500090917900089590E080E008959EEF960FC5
:10056000923010F40C9429016D3011F0603A11F4BE
:100570000C947102623010F0613A21F40E945D0225
:1005800090E0089508959B01AC0160E472E48FE06F
:1005900090E00E94EA03BA01A901415051096109A2
:1005A0007109BB27A72F962F852F8093C5004093F5
:1005B000C40088E18093C10086E08093C200089562
:1005C0002091C00025FFFCCFFC0180818093C600F4
:1005D00008950F931F93CF93DF93EC018E018991C0
:1005E000882351F08A3021F484E291E00E94E002F5
:1005F000C8010E94E002F2CFDF91CF911F910F91CD
:1006000008950E94E90286E291E00C94E902CF92FB
:10061000DF92EF92FF920F931F93CF93DF93CDB7AB
:10062000DEB79E01255F3F4FF901C190D1909F0138
:10063000A60170E060E090E080E00E94370501963E
:100640007C010E9412048C01009769F488E291E019
:100650000E940103DF91CF911F910F91FF90EF90C6
:10066000DF90CF9008959E01235F3F4FA601B70111
:100670000E943705C8010E94E902C8010E94AE0429
:10068000E9CFCF93DF93CDB7DEB76A970FB6F89473
:10069000DEBF0FBECDBF40E063E089E00E94AE0246
:1006A00040E063E08AE00E94AE0240E063E08BE05D
:1006B0000E94AE0288E1E6E0F1E0DE0111960190D1
:1006C0000D928A95E1F710E0F12C01E0412C512CBC
:1006D00032014A948EE1C82E81E0D82E24E0129F88
:1006E000C0011124E1E0F0E0EC0FFD1FE80FF91F5D
:1006F000FA8FE98FE12CF60130804E2D61EA832DCF
:100700000E945D02E98DFA8D608171818281938101
:10071000A30192010E94EA0349015A01CA01B901E9
:100720000E94E200F5E0EF0E24E0E212E4CFEE24B6
:10073000EA944E2D61EA832D0E945D02C501B40149
:100740000E94E2003BEFE30EE312F3CF82E0C80E1B
:10075000D11CE4E2CE16E1E0DE0661F6F394F4E0AB
:10076000FF1560F4002331F01F5F01E0153029F41C
:1007700000E003C0115001E0D9F7F12C82E390E0D2
:100780000E942001A7CF14BC15BC16BC85B58360A0
:1007900085BDEEE6F0E0808181608083109280006C
:1007A000E1E8F0E01082109285001092840089EF59
:1007B00090E0909389008093880080818860808396
:1007C000808183608083EFE6F0E0808182608083B7
:1007D00078940895A1E21A2EAA1BBB1BFD010DC03F
:1007E000AA1FBB1FEE1FFF1FA217B307E407F507E1
:1007F00020F0A21BB30BE40BF50B661F771F881FBD
:10080000991F1A9469F760957095809590959B0152
:10081000AC01BD01CF010895EE0FFF1F0590F491CB
:10082000E02D09940F931F93CF93DF9382309105AE
:1008300010F482E090E0E0915201F091530130E039
:1008400020E0B0E0A0E0309799F42115310509F4DB
:100850004AC0281B390B24303105D8F58A819B8189
:100860006115710589F1FB0193838283FE0111C03B
:10087000408151810281138148175907E0F04817E0
:10088000590799F4109761F012960C9312971396EA
:100890001C933296CF01DF91CF911F910F91089554
:1008A0000093520110935301F4CF2115310551F0FB
:1008B0004217530738F0A901DB019A01BD01DF019E
:1008C000F801C1CFEF01F9CF90935301809352010A
:1008D000CDCFFE01E20FF31F819391932250310996
:1008E00039832883D7CF2091500130915101232B98
:1008F00041F4209102013091030130935101209382
:10090000500120910001309101012115310541F480
:100910002DB73EB74091040150910501241B350BC2
:10092000E0915001F0915101E217F307A0F42E1B62
:100930003F0B2817390778F0AC014E5F5F4F241743
:10094000350748F04E0F5F1F5093510140935001FF
:10095000819391939FCFF0E0E0E09CCFCF93DF9322
:100960000097E9F0FC01329713821282A0915201A4
:10097000B0915301ED0130E020E01097A1F4208107
:100980003181820F931F209150013091510128171E
:10099000390709F061C0F0935101E0935001DF91F4
:1009A000CF910895EA01CE17DF07E8F54A815B8110
:1009B0009E0141155105B1F7E901FB83EA83499195
:1009C0005991C40FD51FEC17FD0761F48081918107
:1009D0000296840F951FE901998388838281938110
:1009E0009B838A83F0E0E0E012968D919C911397AF
:1009F0000097B9F52D913C911197CD010296820F88
:100A0000931F20915001309151012817390739F671
:100A1000309751F51092530110925201B093510149
:100A2000A0935001BCCFD383C28340815181840FF6
:100A3000951FC817D90761F44E5F5F4F8881998170
:100A4000480F591F518340838A819B8193838283FE
:100A50002115310509F0B0CFF0935301E093520115
:100A60009ECFFD01DC01C0CF13821282D7CFAEE052
:100A7000B0E0EDE3F5E00C94EF078C01FA0186E0BD
:100A80008C831A83098377FF02C060E070E86150AD
:100A900071097E836D83A901BF01CE0101960E9479
:100AA00063054D815E8157FD0AC02F81388542174D
:100AB00053070CF49A01020F131FF80110822E96AF
:100AC000E4E00C940B08ABE0B0E0E9E6F5E00C9450
:100AD000E1077C013B018A01FC01178216828381B8
:100AE00081FFC8C1CE0101965C01F7019381F3013A
:100AF00093FD859193FF81913F01882309F453C1B0
:100B0000853239F493FD859193FF81913F018532C0
:100B100029F4B70190E00E945307E7CF912C212CD4
:100B2000312CFFE1F31538F08B3211F190F4803263
:100B300009F1833229F137FC3CC020ED280F2A301F
:100B400050F536FE20C08AE0989E200D1124922E8A
:100B500006C08D3291F0803371F7689430F8F3015C
:100B600093FD859193FF81913F018111DACF21C0DF
:100B7000689431F8689432F8F2CF689433F8EFCF84
:100B8000689434F8ECCFEAE02E9E200D1124222E3A
:100B9000689435F8E4CF8E3229F436FC04C16894A9
:100BA00036F8DDCF8C3619F4689437F8D8CF88360C
:100BB000B1F2982F9F7D95549330E0F08336A1F1E8
:100BC0008337C1F1833509F063C02801F2E04F0E8D
:100BD000511CF801C080D180692D70E036FC02C044
:100BE0006FEF7FEFC6010E943D074C01689437F814
:100BF00082010AC00C5F1F4FFFE3F98388248394AE
:100C0000912C6501E89437F833FE2DC0522C8114E5
:100C1000910471F5552009F468CFB70180E290E0A6
:100C20000E9453075A94F6CFF801808189830E5FA2
:100C30001F4FE4CF2801F2E04F0E511CF801C08095
:100C4000D180692D70E036FC02C06FEF7FEFC601E6
:100C50000E9448074C018201D5CFB70180E290E0A5
:100C60000E9453072A942814190409F0B0F7CECF34
:100C7000F60137FC859137FE81916F01B70190E055
:100C80000E94530751105A94F1E08F1A9108BFCF78
:100C9000843619F0893609F077C0F80137FE6BC049
:100CA00060817181828193810C5F1F4FF32DFF76EC
:100CB0003F2E97FF09C090958095709561957F4F65
:100CC0008F4F9F4F689437F82AE030E0A5010E94CB
:100CD0008307C82ECA188C2C432C36FE0CC0E8940F
:100CE00040F8C91440F434FE05C032FC03C0F32DB3
:100CF000FE7E4F2E892C44FE95C0FE01EC0DF11DA9
:100D00008081803309F087C0242D297E422E842DD6
:100D10008870582E43FC95C040FE8FC09C2C8214D6
:100D200018F42C0C922C981844FE91C0B70180E363
:100D300090E00E94530742FE09C088E790E041FE20
:100D400002C088E590E0B7010E945307C91408F477
:100D50008AC0CA94D12C9FEFC91AD90ACA0CDB1CCD
:100D6000F60182916F01B70190E00E945307AC1425
:100D7000BD04B1F74FCF60817181072E000C880B45
:100D8000990B0E5F1F4F92CFD32CE894D4F82AE032
:100D900030E0853739F1232D297FD22E8F3601F1AE
:100DA00048F48835A9F0F701868197812B96E2E116
:100DB0000C94FD07803749F08837A9F7D4FE02C0AC
:100DC0006894D2F820E130E00DC06894D4F8F6CFF2
:100DD00034FE03C0822F8660D82E20E132E002C0AC
:100DE00028E030E0F801D7FE0FC060817181828178
:100DF00093810C5F1F4FA5010E948307C82ECA185C
:100E00003D2CE89437F867CF6081718190E080E0F5
:100E10000E5F1F4FF0CF42FC02C0839478CF8394C3
:100E2000839475CF842D867809F471CFF6CFB701FE
:100E300080E290E00E94530783948214C0F3512C07
:100E400073CF522C5818821408F46ECFF8CF842D2B
:100E5000867809F47BCF8BE241FE80E247FC8DE28D
:100E6000B70190E071CFB70180E390E00E94530793
:100E70009A946CCF8FEF9FEF99CFFC010590615052
:100E800070400110D8F7809590958E0F9F1F0895A0
:100E9000FC016150704001900110D8F78095909549
:100EA0008E0F9F1F08950F931F93CF93DF93182FDB
:100EB000092FEB018B8181FD09C01FEF0FEF812FFF
:100EC000902FDF91CF911F910F91089582FF14C051
:100ED0002E813F818C819D81281739073CF4E88160
:100EE000F981CF0101969983888310838E819F8138
:100EF00001969F838E83E3CFE885F985812F09953D
:100F0000892BA1F3DACFFA01AA27283051F1203139
:100F100081F1E8946F936E7F6E5F7F4F8F4F9F4F8D
:100F2000AF4FB1E03ED0B4E03CD0670F781F891FCF
:100F30009A1FA11D680F791F8A1F911DA11D6A0F9D
:100F4000711D811D911DA11D20D009F468943F9150
:100F50002AE0269F11243019305D3193DEF6CF014F
:100F60000895462F4770405D4193B3E00FD0C9F715
:100F7000F6CF462F4F70405D4A3318F0495D31FD82
:100F80004052419302D0A9F7EACFB4E0A6959795D5
:100F9000879577956795BA95C9F7009761057105AB
:100FA00008959B01AC010A2E0694579547953795F5
:100FB0002795BA95C9F7620F731F841F951FA01D4F
:100FC00008952F923F924F925F926F927F928F92ED
:100FD0009F92AF92BF92CF92DF92EF92FF920F93C8
:100FE0001F93CF93DF93CDB7DEB7CA1BDB0B0FB6D2
:100FF000F894DEBF0FBECDBF09942A88398848888F
:101000005F846E847D848C849B84AA84B984C88424
:10101000DF80EE80FD800C811B81AA81B981CE0F1B
:10102000D11D0FB6F894DEBF0FBECDBFED01089500
:04103000F894FFCF62
:101034000000540120001027000088130000E8037A
:101044000000F40100006400000032000000090008
:101054000A000B000D000A004572726F723A204DAF
:10106400656D6F727920616C6C6F636174696F6E0A
:08107400206661696C656400EF
:00000001FF
