:100000000C9435000C945D000C945D000C945D0024
:100010000C945D000C945D000C945D000C945D00EC
:100020000C945D000C945D000C945D000C94C70072
:100030000C945D000C945D000C945D000C945D00CC
:100040000C94A2000C945D000C945D000C945D0077
:100050000C945D000C945D000C945D000C945D00AC
:100060000C945D000C945D006C0411241FBECFEF56
:10007000D8E0DEBFCDBF11E0A0E0B1E0E6E8F1E1FD
:1000800002C005900D92A835B107D9F721E0A8E587
:10009000B1E001C01D92A937B207E1F710E0C5E356
:1000A000D0E004C02197FE010E94B504C433D107FB
:1000B000C9F70E94B3030C94C1080C9400000F937D
:1000C0001F930E94EC0000915B0110915C01209154
:1000D0005D0130915E01601B710B820B930B6E31E1
:1000E00071058105910558F10E94EC0060935B0158
:1000F00070935C0180935D0190935E01809100019B
:10010000909101014091590150915A01480F591F96
:1001100050935A01409359019A01215031092E3FC1
:10012000310538F091958195910990930101809363
:10013000000161EA8BE00E942003809358011F9127
:100140000F9108951F920F920FB60F9211248F9363
:100150009F93AF93BF938091710190917201A09191
:100160007301B09174010196A11DB11D80937101BD
:1001700090937201A0937301B0937401BF91AF91FA
:100180009F918F910F900FBE0F901F9018951F9207
:100190000F920FB60F9211248F939F93AF93BF933B
:1001A00080916D0190916E01A0916F01B0917001ED
:1001B0000196A11DB11D80936D0190936E01A093D6
:1001C0006F01B0937001BF91AF919F918F910F908C
:1001D0000FBE0F901F901895F89460916D0170916B
:1001E0006E0180916F0190917001789408950F9342
:1001F0001F932FB7F8948091710190917201A09193
:100200007301B091740146B5A89B05C04F3F19F02A
:100210000196A11DB11D2FBFBA2FA92F982F882796
:1002200050E070E060E032E0440F551F661F771F1A
:100230003A95D1F78C019D01040F151F261F371F1A
:10024000C901B8011F910F9108958F929F92AF92AB
:10025000BF92CF92DF92EF92FF926B017C010E94DE
:10026000F7004B015C01C114D104E104F10411F168
:100270000E94F700681979098A099B09683E734052
:100280008105910580F38FE99FE00197F1F700C0A8
:10029000000091E0C91AD108E108F10828EE820EA9
:1002A00023E0921EA11CB11CC114D104E104F1048D
:1002B000F9F6D9CFFF90EF90DF90CF90BF90AF903D
:1002C0009F908F900895009731F025E02A95F1F7DF
:1002D00000000197F8CF08956330A9F5883068F4DD
:1002E0009AB121E030E001C0220F8A95EAF7892F08
:1002F000822B8AB981E090E0089598EF980F9630AC
:1003000078F424B18850990B41E050E0BA0102C062
:10031000660F771F8A95E2F7CB01822B84B9EACF6B
:1003200092EF980F963030F727B18E50990B41E03D
:1003300050E0BA0102C0660F771F8A95E2F7CB0141
:10034000822B87B9D7CF883068F44AB121E030E0FA
:10035000B90102C0660F771F8A95E2F7CB0180953D
:100360008423C7CF98EF980F963078F444B1885023
:10037000990B21E030E0B90102C0660F771F8A9522
:10038000E2F7CB0180958423C9CF92EF980F963086
:1003900008F0B0CF47B18E50990B21E030E0B901A1
:1003A00002C0660F771F8A95E2F7CB018095842300
:1003B000C8CF613099F5883058F49BB121E030E026
:1003C00001C0220F8A95EAF7892F822B8BB90895F5
:1003D00098EF980F963078F425B18850990B41E04A
:1003E00050E0BA0102C0660F771F8A95E2F7CB0191
:1003F000822B85B9089592EF980F963070F428B14A
:100400008E50990B41E050E0BA0102C0660F771F91
:100410008A95E2F7CB01822B88B908956111FDCF4F
:10042000883068F44BB121E030E0B90102C0660FBA
:10043000771F8A95E2F7CB0180958423C7CF98EF89
:10044000980F963078F445B18850990B21E030E050
:10045000B90102C0660F771F8A95E2F7CB0180953C
:100460008423C7CF92EF980F9630B8F648B18E50DC
:10047000990B21E030E0B90102C0660F771F8A9521
:10048000E2F7CB0180958423C7CF833061F08B30B6
:1004900051F58091B00061111BC08F778093B0003F
:1004A0001092B30008958091B000611106C08F7D55
:1004B0008093B0001092B400089583628093B000DE
:1004C0008091B10082608093B1006093B400089580
:1004D00083688093B0008091B10082608093B10006
:1004E0006093B30008959BEF980F9230F0F485303D
:1004F00071F484B5611104C08F7D84BD18BC08956A
:10050000836284BD85B5826085BD68BD089584B56C
:10051000611104C08F7784BD17BC0895836884BDC2
:1005200085B5826085BD67BD089597EF980F9230BD
:10053000A8F58930D1F480918000611108C08F77CF
:10054000809380001092890010928800089581683D
:1005500080938000809181008A608093810070E0A8
:1005600070938900609388000895809180006111E4
:1005700008C08F7D8093800010928B0010928A00BB
:100580000895816280938000809181008A608093C9
:10059000810070E070938B0060938A000895CF9380
:1005A000DF93D62FC42F613A39F4642F0E9445029D
:1005B0008C2FDF91CF910895C0E06230C8F70E9480
:1005C000D901CD2FF5CF282F6D3009F5883058F49B
:1005D00099B1892F90E002C0959587952A95E2F709
:1005E00081709927089588EF820F863030F493B197
:1005F000892F90E02850330BEECF82EF820F8630A8
:10060000E0F496B1892F90E02E50330BE4CF603A9E
:10061000A1F42E50263088F4206420937C00809131
:100620007A00806480937A0080917A0086FDFCCF06
:100630008091780090917900089590E080E008958D
:100640009EEF960F923010F40C946C016D3011F007
:10065000603A11F40C94E302623010F0613A21F434
:100660000E94CF0290E0089508959B01AC0160E4E0
:1006700072E48FE090E00E949304BA01A901415016
:10068000510961097109BB27A72F962F852F8093E8
:10069000C5004093C40088E18093C10086E0809348
:1006A000C20008952091C00025FFFCCFFC0180818D
:1006B0008093C60008950F931F93CF93DF93EC01AF
:1006C0008E018991882351F08A3021F486E391E0EC
:1006D0000E945203C8010E945203F2CFDF91CF91D2
:1006E0001F910F9108950E945B0384E391E00C94A5
:1006F0005B03CF92DF92EF92FF920F931F93CF9302
:10070000DF93CDB7DEB79E01255F3F4FF901C19062
:10071000D1909F01A60170E060E090E080E00E942F
:10072000E00501967C010E94BB048C01009769F4EE
:1007300088E391E00E947303DF91CF911F910F91A5
:10074000FF90EF90DF90CF9008959E01235F3F4F81
:10075000A601B7010E94E005C8010E945B03C80121
:100760000E945705E9CF60E875E280E090E00E94C2
:10077000350388E091E00E945B038FE091E00E94E6
:10078000730340E063E08DE00E94200340E063E0FB
:100790008CE00E94200340E063E08BE00E94200395
:1007A000C5E1D1E00E94EC0000916101109162016D
:1007B0002091630130916401601B710B820B930BDC
:1007C000643F71408105910550F10E94EC006093F7
:1007D000610170936201809363019093640140E032
:1007E0006DE08DE00E942003182F092F40E06DE09E
:1007F0008CE00E942003209158011F922F939F9319
:100800008F930F931F93DF93CF930E9479038DB73C
:100810009EB708960FB6F8949EBF0FBE8DBF0E947C
:10082000EC000091690110916A0120916B013091F7
:100830006C01601B710B820B930B6838734181054F
:10084000910588F00E94EC006093690170936A0141
:1008500080936B0190936C0181E090916001911104
:1008600080E0809360010E94EC000091650110918E
:1008700066012091670130916801601B710B820B4A
:10088000930B683E73408105910588F00E94EC004F
:10089000609365017093660180936701909368018E
:1008A00081E090915F01911180E080935F0140E0D1
:1008B000609160018DE00E94200340E060915F0143
:1008C0008CE00E9420030E945F0065E070E080E001
:1008D00090E00E94250166CF14BC15BC16BC85B5FE
:1008E000836085BDEEE6F0E08081816080831092B8
:1008F0008000E1E8F0E01082109285001092840000
:1009000089EF90E0909389008093880080818860CF
:100910008083808183608083EFE6F0E08081826065
:10092000808378940895A1E21A2EAA1BBB1BFD01B7
:100930000DC0AA1FBB1FEE1FFF1FA217B307E407BE
:10094000F50720F0A21BB30BE40BF50B661F771F16
:10095000881F991F1A9469F76095709580959095F6
:100960009B01AC01BD01CF010895EE0FFF1F059063
:10097000F491E02D09940F931F93CF93DF9382306E
:10098000910510F482E090E0E0917701F091780118
:1009900030E020E0B0E0A0E0309799F42115310577
:1009A00009F44AC0281B390B24303105D8F58A8157
:1009B0009B816115710589F1FB0193838283FE019F
:1009C00011C0408151810281138148175907E0F01D
:1009D0004817590799F4109761F012960C931297E3
:1009E00013961C933296CF01DF91CF911F910F91F7
:1009F00008950093770110937801F4CF2115310504
:100A000051F04217530738F0A901DB019A01BD01EB
:100A1000DF01F801C1CFEF01F9CF90937801809306
:100A20007701CDCFFE01E20FF31F81939193225006
:100A3000310939832883D7CF209175013091760110
:100A4000232B41F42091040130910501309376016C
:100A50002093750120910201309103012115310588
:100A600041F42DB73EB74091060150910701241B78
:100A7000350BE0917501F0917601E217F307A0F4D0
:100A80002E1B3F0B2817390778F0AC014E5F5F4FE4
:100A90002417350748F04E0F5F1F5093760140939F
:100AA0007501819391939FCFF0E0E0E09CCFCF93CD
:100AB000DF930097E9F0FC01329713821282A09134
:100AC0007701B0917801ED0130E020E01097A1F4BA
:100AD00020813181820F931F209175013091760121
:100AE0002817390709F061C0F0937601E09375018A
:100AF000DF91CF910895EA01CE17DF07E8F54A812B
:100B00005B819E0141155105B1F7E901FB83EA8341
:100B100049915991C40FD51FEC17FD0761F48081ED
:100B200091810296840F951FE901998388838281C0
:100B300093819B838A83F0E0E0E012968D919C91F3
:100B400013970097B9F52D913C911197CD0102961D
:100B5000820F931F20917501309176012817390774
:100B600039F6309751F51092780110927701B093D1
:100B70007601A0937501BCCFD383C283408151819C
:100B8000840F951FC817D90761F44E5F5F4F8881A6
:100B90009981480F591F518340838A819B81938398
:100BA00082832115310509F0B0CFF0937801E093ED
:100BB00077019ECFFD01DC01C0CF13821282D7CF17
:100BC000AEE0B0E0E6EEF5E00C9498088C01FA0196
:100BD00086E08C831A83098377FF02C060E070E8A7
:100BE000615071097E836D83A901BF01CE01019619
:100BF0000E940C064D815E8157FD0AC02F81388509
:100C0000421753070CF49A01020F131FF8011082C8
:100C10002E96E4E00C94B408ABE0B0E0E2E1F6E03C
:100C20000C948A087C013B018A01FC011782168220
:100C3000838181FFC8C1CE0101965C01F7019381D8
:100C4000F30193FD859193FF81913F01882309F47E
:100C500053C1853239F493FD859193FF81913F0112
:100C6000853229F4B70190E00E94FC07E7CF912C70
:100C7000212C312CFFE1F31538F08B3211F190F477
:100C8000803209F1833229F137FC3CC020ED280F76
:100C90002A3050F536FE20C08AE0989E200D11249F
:100CA000922E06C08D3291F0803371F7689430F83F
:100CB000F30193FD859193FF81913F018111DACF7B
:100CC00021C0689431F8689432F8F2CF689433F810
:100CD000EFCF689434F8ECCFEAE02E9E200D11247B
:100CE000222E689435F8E4CF8E3229F436FC04C104
:100CF000689436F8DDCF8C3619F4689437F8D8CF7D
:100D00008836B1F2982F9F7D95549330E0F083366A
:100D1000A1F18337C1F1833509F063C02801F2E006
:100D20004F0E511CF801C080D180692D70E036FC57
:100D300002C06FEF7FEFC6010E94E6074C01689486
:100D400037F882010AC00C5F1F4FFFE3F983882444
:100D50008394912C6501E89437F833FE2DC0522C12
:100D60008114910471F5552009F468CFB70180E230
:100D700090E00E94FC075A94F6CFF80180818983A5
:100D80000E5F1F4FE4CF2801F2E04F0E511CF80117
:100D9000C080D180692D70E036FC02C06FEF7FEF1C
:100DA000C6010E94F1074C018201D5CFB70180E254
:100DB00090E00E94FC072A942814190409F0B0F767
:100DC000CECFF60137FC859137FE81916F01B701D7
:100DD00090E00E94FC0751105A94F1E08F1A91089C
:100DE000BFCF843619F0893609F077C0F80137FE95
:100DF0006BC060817181828193810C5F1F4FF32DE5
:100E0000FF763F2E97FF09C090958095709561956C
:100E10007F4F8F4F9F4F689437F82AE030E0A5014D
:100E20000E942C08C82ECA188C2C432C36FE0CC0ED
:100E3000E89440F8C91440F434FE05C032FC03C005
:100E4000F32DFE7E4F2E892C44FE95C0FE01EC0D45
:100E5000F11D8081803309F087C0242D297E422E28
:100E6000842D8870582E43FC95C040FE8FC09C2C6A
:100E7000821418F42C0C922C981844FE91C0B701DF
:100E800080E390E00E94FC0742FE09C088E790E002
:100E900041FE02C088E590E0B7010E94FC07C9143A
:100EA00008F48AC0CA94D12C9FEFC91AD90ACA0C77
:100EB000DB1CF60182916F01B70190E00E94FC07F4
:100EC000AC14BD04B1F74FCF60817181072E000CC7
:100ED000880B990B0E5F1F4F92CFD32CE894D4F858
:100EE0002AE030E0853739F1232D297FD22E8F3645
:100EF00001F148F48835A9F0F701868197812B9696
:100F0000E2E10C94A608803749F08837A9F7D4FEAF
:100F100002C06894D2F820E130E00DC06894D4F8A3
:100F2000F6CF34FE03C0822F8660D82E20E132E057
:100F300002C028E030E0F801D7FE0FC06081718167
:100F4000828193810C5F1F4FA5010E942C08C82E3F
:100F5000CA183D2CE89437F867CF6081718190E022
:100F600080E00E5F1F4FF0CF42FC02C0839478CF29
:100F70008394839475CF842D867809F471CFF6CF4E
:100F8000B70180E290E00E94FC0783948214C0F3D2
:100F9000512C73CF522C5818821408F46ECFF8CF0E
:100FA000842D867809F47BCF8BE241FE80E247FCFA
:100FB0008DE2B70190E071CFB70180E390E00E942D
:100FC000FC079A946CCF8FEF9FEF99CFFC010590AF
:100FD000615070400110D8F7809590958E0F9F1F3B
:100FE0000895FC016150704001900110D8F7809580
:100FF00090958E0F9F1F08950F931F93CF93DF93AC
:10100000182F092FEB018B8181FD09C01FEF0FEF16
:10101000812F902FDF91CF911F910F91089582FF23
:1010200014C02E813F818C819D81281739073CF4A3
:10103000E881F981CF0101969983888310838E819D
:101040009F8101969F838E83E3CFE885F985812F69
:101050000995892BA1F3DACFFA01AA27283051F19B
:10106000203181F1E8946F936E7F6E5F7F4F8F4FD9
:101070009F4FAF4FB1E03ED0B4E03CD0670F781F38
:10108000891F9A1FA11D680F791F8A1F911DA11D1D
:101090006A0F711D811D911DA11D20D009F4689456
:1010A0003F912AE0269F11243019305D3193DEF6FE
:1010B000CF010895462F4770405D4193B3E00FD0B4
:1010C000C9F7F6CF462F4F70405D4A3318F0495D9F
:1010D00031FD4052419302D0A9F7EACFB4E0A69582
:1010E0009795879577956795BA95C9F700976105A4
:1010F000710508959B01AC010A2E069457954795FA
:1011000037952795BA95C9F7620F731F841F951FEE
:10111000A01D08952F923F924F925F926F927F92FF
:101120008F929F92AF92BF92CF92DF92EF92FF92F7
:101130000F931F93CF93DF93CDB7DEB7CA1BDB0BA3
:101140000FB6F894DEBF0FBECDBF09942A88398848
:1011500048885F846E847D848C849B84AA84B9844F
:10116000C884DF80EE80FD800C811B81AA81B9815B
:10117000CE0FD11D0FB6F894DEBF0FBECDBFED016F
:061180000895F894FFCF72
:10118600050000007901200048656C6C6F2000772F
:101196006F726C64004C454420313A2025642C2043
:1011A6004C454420323A2025642C204C45442033BB
:1011B6003A2025640A000D004572726F723A204D7E
:1011C600656D6F727920616C6C6F636174696F6EA7
:0811D600206661696C6564008C
:00000001FF
