:100000000C9435000C945D000C945D000C945D0024
:100010000C945D000C945D000C945D000C945D00EC
:100020000C945D000C945D000C945D000C948400B5
:100030000C945D000C945D000C945D000C945D00CC
:100040000C945F000C945D000C945D000C945D00BA
:100050000C945D000C945D000C945D000C945D00AC
:100060000C945D000C945D00B10311241FBECFEF12
:10007000D8E0DEBFCDBF11E0A0E0B1E0E0E1F0E10B
:1000800002C005900D92A034B107D9F721E0A0E499
:10009000B1E001C01D92AC34B207E1F710E0C5E356
:1000A000D0E004C02197FE010E94FA03C433D107B7
:1000B000C9F70E943A030C9406080C9400001F92A2
:1000C0000F920FB60F9211248F939F93AF93BF930C
:1000D0008091440190914501A0914601B091470162
:1000E0000196A11DB11D8093440190934501A093F9
:1000F0004601B0934701BF91AF919F918F910F90AF
:100100000FBE0F901F9018951F920F920FB60F926F
:1001100011248F939F93AF93BF938091400190914F
:100120004101A0914201B09143010196A11DB11D71
:100130008093400190934101A0934201B093430109
:10014000BF91AF919F918F910F900FBE0F901F9015
:100150001895F8946091400170914101809142019D
:1001600090914301789408950F931F932FB7F894BB
:100170008091440190914501A0914601B0914701C1
:1001800046B5A89B05C04F3F19F00196A11DB11DB2
:100190002FBFBA2FA92F982F882750E070E060E07A
:1001A00032E0440F551F661F771F3A95D1F78C0137
:1001B0009D01040F151F261F371FC901B8011F918C
:1001C0000F9108958F929F92AF92BF92CF92DF923C
:1001D000EF92FF926B017C010E94B4004B015C0125
:1001E000C114D104E104F10411F10E94B4006819B2
:1001F00079098A099B09683E73408105910580F35E
:100200008FE99FE00197F1F700C0000091E0C91A63
:10021000D108E108F10828EE820E23E0921EA11C0D
:10022000B11CC114D104E104F104F9F6D9CFFF9057
:10023000EF90DF90CF90BF90AF909F908F900895F8
:10024000009731F025E02A95F1F700000197F8CFEB
:100250000895633099F5883058F49AB121E030E080
:1002600001C0220F8A95EAF7892F822B8AB9089557
:1002700098EF980F963078F424B18850990B41E0AC
:1002800050E0BA0102C0660F771F8A95E2F7CB01F2
:10029000822B84B9089592EF980F963070F427B1AD
:1002A0008E50990B41E050E0BA0102C0660F771FF3
:1002B0008A95E2F7CB01822B87B90895883068F4DC
:1002C0004AB121E030E0B90102C0660F771F8A957C
:1002D000E2F7CB0180958423C9CF98EF980F963031
:1002E00078F444B18850990B21E030E0B90102C0A4
:1002F000660F771F8A95E2F7CB0180958423C9CFDB
:1003000092EF980F9630C8F647B18E50990B21E0C6
:1003100030E0B90102C0660F771F8A95E2F7CB0182
:1003200080958423C9CF282F673009F5883058F489
:1003300099B1892F90E002C0959587952A95E2F7AB
:1003400081709927089588EF820F863030F493B139
:10035000892F90E02850330BEECF82EF820F86304A
:10036000E0F496B1892F90E02E50330BE4CF653046
:10037000A1F42E50263088F4206420937C008091D4
:100380007A00806480937A0080917A0086FDFCCFA9
:100390008091780090917900089590E080E0089530
:1003A0006130A1F5883058F49BB121E030E001C004
:1003B000220F8A95EAF7892F822B8BB9089598EF3F
:1003C000980F963078F425B18850990B41E050E0B1
:1003D000BA0102C0660F771F8A95E2F7CB01822B24
:1003E00085B9089592EF980F963008F0A2C028B111
:1003F0008E50990B41E050E0BA0102C0660F771FA2
:100400008A95E2F7CB01822B88B90895611136C035
:10041000883068F44BB121E030E0B90102C0660FCA
:10042000771F8A95E2F7CB0180958423C6CF98EF9A
:10043000980F963078F445B18850990B21E030E060
:10044000B90102C0660F771F8A95E2F7CB0180954C
:100450008423C6CF92EF980F963008F06AC048B157
:100460008E50990B21E030E0B90102C0660F771F72
:100470008A95E2F7CB0180958423C6CF663009F0D8
:1004800058C0833079F08B30D1F48091B00083680C
:100490008093B0008091B10082608093B10040935E
:1004A000B30008958091B00083628093B000809182
:1004B000B10082608093B1004093B40008959BEF37
:1004C000980F923090F4853041F484B5836284BDF6
:1004D00085B5826085BD48BD089584B5836884BDB7
:1004E00085B5826085BD47BD089597EF980F92301E
:1004F00000F550E0893079F4809180008168809324
:100500008000809181008A608093810050938900EF
:1005100040938800089580918000816280938000DC
:10052000809181008A608093810050938B0040937A
:100530008A000895CF93DF93D82FC62F8EEF860FB2
:10054000823068F48D2F0E9429018C2F8D7F853099
:1005500081F46C2F8D2FDF91CF910C949301623039
:1005600028F46C2F8D2F0E94D001EFCF663069F7F1
:10057000F8CFDF91CF9108959B01AC0160E472E464
:100580008FE090E00E94D803BA01A90141505109BF
:1005900061097109BB27A72F962F852F8093C5006E
:1005A0004093C40088E18093C10086E08093C2003C
:1005B00008952091C00025FFFCCFFC01808180932D
:1005C000C60008950F931F93CF93DF93EC018E0124
:1005D0008991882351F08A3021F48CE191E00E94C6
:1005E000D902C8010E94D902F2CFDF91CF911F91A9
:1005F0000F9108950E94E2028EE191E00C94E202D4
:10060000CF92DF92EF92FF920F931F93CF93DF93DE
:10061000CDB7DEB79E01255F3F4FF901C190D19064
:100620009F01A60170E060E090E080E00E94250557
:1006300001967C010E9400048C01009769F480E21D
:1006400091E00E94FA02DF91CF911F910F91FF90EC
:10065000EF90DF90CF9008959E01235F3F4FA6015A
:10066000B7010E942505C8010E94E202C8010E944C
:100670009C04E9CFCF93DF93CDB7DEB760970FB679
:10068000F894DEBF0FBECDBF40E063E089E00E947A
:100690009A0240E063E08AE00E949A0240E063E050
:1006A0008BE00E949A0280E1E6E0F1E0DE01119623
:1006B00001900D928A95E1F7812C10E02CE1A22E99
:1006C00021E0B22E86E1C82E81E0D82EE82CF12C54
:1006D0001701220C331C220C331C81E090E08C0F9C
:1006E0009D1F280E391E00E0F6019080402F66E025
:1006F000892D0E94D001F1016081718182819381F5
:100700002FEF30E040E050E00E94D80329013A0189
:10071000CA01B9010E94E2000B5F043029F70FEF14
:10072000402F66E0892D0E94D001C301B2010E94D2
:10073000E20005500B3FA1F7F2E0CF0ED11CAC1444
:10074000BD0489F61F5F1A3038F08FEFE81AF80AF7
:100750009E2D9370892E10E082E390E00E9420018C
:10076000B1CF14BC15BC16BC85B5836085BDEEE663
:10077000F0E080818160808310928000E1E8F0E009
:100780001082109285001092840089EF90E090937F
:100790008900809388008081886080838081836065
:1007A0008083EFE6F0E08081826080837894089512
:1007B000A1E21A2EAA1BBB1BFD010DC0AA1FBB1F65
:1007C000EE1FFF1FA217B307E407F50720F0A21BD7
:1007D000B30BE40BF50B661F771F881F991F1A9444
:1007E00069F760957095809590959B01AC01BD016E
:1007F000CF010895EE0FFF1F0590F491E02D0994AD
:100800000F931F93CF93DF938230910510F482E012
:1008100090E0E0914A01F0914B0130E020E0B0E03F
:10082000A0E0309799F42115310509F44AC0281B3E
:10083000390B24303105D8F58A819B81611571050A
:1008400089F1FB0193838283FE0111C040815181B4
:100850000281138148175907E0F04817590799F4A6
:10086000109761F012960C93129713961C93329680
:10087000CF01DF91CF911F910F91089500934A010D
:1008800010934B01F4CF2115310551F04217530756
:1008900038F0A901DB019A01BD01DF01F801C1CFE8
:1008A000EF01F9CF90934B0180934A01CDCFFE0128
:1008B000E20FF31F819391932250310939832883EA
:1008C000D7CF2091480130914901232B41F4209149
:1008D0000201309103013093490120934801209196
:1008E0000001309101012115310541F42DB73EB7CA
:1008F0004091040150910501241B350BE091480102
:10090000F0914901E217F307A0F42E1B3F0B2817C3
:10091000390778F0AC014E5F5F4F2417350748F078
:100920004E0F5F1F5093490140934801819391936B
:100930009FCFF0E0E0E09CCFCF93DF930097E9F00A
:10094000FC01329713821282A0914A01B0914B01AF
:10095000ED0130E020E01097A1F420813181820F79
:10096000931F20914801309149012817390709F058
:1009700061C0F0934901E0934801DF91CF91089560
:10098000EA01CE17DF07E8F54A815B819E01411538
:100990005105B1F7E901FB83EA8349915991C40FED
:1009A000D51FEC17FD0761F4808191810296840FB9
:1009B000951FE90199838883828193819B838A8330
:1009C000F0E0E0E012968D919C9113970097B9F5B5
:1009D0002D913C911197CD010296820F931F20918A
:1009E0004801309149012817390739F6309751F5F8
:1009F00010924B0110924A01B0934901A093480113
:100A0000BCCFD383C28340815181840F951FC81707
:100A1000D90761F44E5F5F4F88819981480F591F54
:100A2000518340838A819B81938382832115310581
:100A300009F0B0CFF0934B01E0934A019ECFFD0146
:100A4000DC01C0CF13821282D7CFAEE0B0E0EBE280
:100A5000F5E00C94DD078C01FA0186E08C831A83A3
:100A6000098377FF02C060E070E8615071097E83FE
:100A70006D83A901BF01CE0101960E9451054D81F0
:100A80005E8157FD0AC02F813885421753070CF449
:100A90009A01020F131FF80110822E96E4E00C94C5
:100AA000F907ABE0B0E0E7E5F5E00C94CF077C0197
:100AB0003B018A01FC0117821682838181FFC8C134
:100AC000CE0101965C01F7019381F30193FD8591BD
:100AD00093FF81913F01882309F453C1853239F492
:100AE00093FD859193FF81913F01853229F4B701F0
:100AF00090E00E944107E7CF912C212C312CFFE19F
:100B0000F31538F08B3211F190F4803209F1833211
:100B100029F137FC3CC020ED280F2A3050F536FE75
:100B200020C08AE0989E200D1124922E06C08D329E
:100B300091F0803371F7689430F8F30193FD85915B
:100B400093FF81913F018111DACF21C0689431F880
:100B5000689432F8F2CF689433F8EFCF689434F8A1
:100B6000ECCFEAE02E9E200D1124222E689435F859
:100B7000E4CF8E3229F436FC04C1689436F8DDCF18
:100B80008C3619F4689437F8D8CF8836B1F2982F9C
:100B90009F7D95549330E0F08336A1F18337C1F106
:100BA000833509F063C02801F2E04F0E511CF801B3
:100BB000C080D180692D70E036FC02C06FEF7FEFFE
:100BC000C6010E942B074C01689437F882010AC0C5
:100BD0000C5F1F4FFFE3F98388248394912C6501F8
:100BE000E89437F833FE2DC0522C8114910471F52E
:100BF000552009F468CFB70180E290E00E944107D8
:100C00005A94F6CFF801808189830E5F1F4FE4CF9D
:100C10002801F2E04F0E511CF801C080D180692DEF
:100C200070E036FC02C06FEF7FEFC6010E9436070E
:100C30004C018201D5CFB70180E290E00E944107CC
:100C40002A942814190409F0B0F7CECFF60137FC26
:100C5000859137FE81916F01B70190E00E944107B5
:100C600051105A94F1E08F1A9108BFCF843619F0D1
:100C7000893609F077C0F80137FE6BC06081718159
:100C8000828193810C5F1F4FF32DFF763F2E97FFDC
:100C900009C090958095709561957F4F8F4F9F4FBC
:100CA000689437F82AE030E0A5010E947107C82E49
:100CB000CA188C2C432C36FE0CC0E89440F8C9149A
:100CC00040F434FE05C032FC03C0F32DFE7E4F2EEF
:100CD000892C44FE95C0FE01EC0DF11D808180330E
:100CE00009F087C0242D297E422E842D8870582E2D
:100CF00043FC95C040FE8FC09C2C821418F42C0C31
:100D0000922C981844FE91C0B70180E390E00E94B5
:100D1000410742FE09C088E790E041FE02C088E535
:100D200090E0B7010E944107C91408F48AC0CA9430
:100D3000D12C9FEFC91AD90ACA0CDB1CF60182918B
:100D40006F01B70190E00E944107AC14BD04B1F7F8
:100D50004FCF60817181072E000C880B990B0E5FBD
:100D60001F4F92CFD32CE894D4F82AE030E0853797
:100D700039F1232D297FD22E8F3601F148F48835A1
:100D8000A9F0F701868197812B96E2E10C94EB079D
:100D9000803749F08837A9F7D4FE02C06894D2F8AA
:100DA00020E130E00DC06894D4F8F6CF34FE03C0E3
:100DB000822F8660D82E20E132E002C028E030E0A9
:100DC000F801D7FE0FC060817181828193810C5F31
:100DD0001F4FA5010E947107C82ECA183D2CE89428
:100DE00037F867CF6081718190E080E00E5F1F4F20
:100DF000F0CF42FC02C0839478CF8394839475CF64
:100E0000842D867809F471CFF6CFB70180E290E0A7
:100E10000E94410783948214C0F3512C73CF522C4B
:100E20005818821408F46ECFF8CF842D867809F410
:100E30007BCF8BE241FE80E247FC8DE2B70190E080
:100E400071CFB70180E390E00E9441079A946CCF84
:100E50008FEF9FEF99CFFC0105906150704001101A
:100E6000D8F7809590958E0F9F1F0895FC016150D3
:100E7000704001900110D8F7809590958E0F9F1FBC
:100E800008950F931F93CF93DF93182F092FEB0132
:100E90008B8181FD09C01FEF0FEF812F902FDF9114
:100EA000CF911F910F91089582FF14C02E813F8131
:100EB0008C819D81281739073CF4E881F981CF01A5
:100EC00001969983888310838E819F8101969F83E9
:100ED0008E83E3CFE885F985812F0995892BA1F3CE
:100EE000DACFFA01AA27283051F1203181F1E894B4
:100EF0006F936E7F6E5F7F4F8F4F9F4FAF4FB1E00D
:100F00003ED0B4E03CD0670F781F891F9A1FA11D07
:100F1000680F791F8A1F911DA11D6A0F711D811D08
:100F2000911DA11D20D009F468943F912AE0269FCD
:100F300011243019305D3193DEF6CF010895462F2C
:100F40004770405D4193B3E00FD0C9F7F6CF462F0D
:100F50004F70405D4A3318F0495D31FD4052419376
:100F600002D0A9F7EACFB4E0A69597958795779533
:100F70006795BA95C9F700976105710508959B01BA
:100F8000AC010A2E06945795479537952795BA9543
:100F9000C9F7620F731F841F951FA01D08952F921C
:100FA0003F924F925F926F927F928F929F92AF92F9
:100FB000BF92CF92DF92EF92FF920F931F93CF9346
:100FC000DF93CDB7DEB7CA1BDB0B0FB6F894DEBFDD
:100FD0000FBECDBF09942A88398848885F846E8403
:100FE0007D848C849B84AA84B984C884DF80EE804D
:100FF000FD800C811B81AA81B981CE0FD11D0FB656
:10100000F894DEBF0FBECDBFED010895F894FFCF79
:1010100000004C012000E8030000F401000064001F
:1010200000003200000009000A000B000D000A0059
:101030004572726F723A204D656D6F727920616CE6
:101040006C6F636174696F6E206661696C656400C2
:00000001FF
